Component: ARM Compiler 5.06 update 1 (build 61) Tool: armlink [4d35a8]

==============================================================================

Section Cross References

    crc8.o(.text) refers to crc8.o(.constdata) for CRC8Table
    crc16.o(.text) refers to crc16.o(.constdata) for CRC16Table
    crc32.o(.text) refers to crc32.o(.data) for tab_gen_flag
    crc32.o(.text) refers to crc32.o(.bss) for CRC32Table
    fifo.o(.text) refers to malloc.o(i.malloc) for malloc
    fifo.o(.text) refers to malloc.o(i.free) for free
    mafilter.o(.text) refers to malloc.o(i.malloc) for malloc
    mafilter.o(.text) refers to malloc.o(i.free) for free
    mafilter_f32.o(.text) refers to malloc.o(i.malloc) for malloc
    mafilter_f32.o(.text) refers to malloc.o(i.free) for free
    mafilter_i16.o(.text) refers to malloc.o(i.malloc) for malloc
    mafilter_i16.o(.text) refers to malloc.o(i.free) for free
    mafilter_i32.o(.text) refers to malloc.o(i.malloc) for malloc
    mafilter_i32.o(.text) refers to malloc.o(i.free) for free
    sprotocol.o(.text) refers to memcpya.o(.text) for __aeabi_memcpy
    sprotocol.o(.text) refers to crc16.o(.text) for CRC16Append
    can1task.o(.text) refers to can1.o(.bss) for can1RxMsg
    can1task.o(.text) refers to can1task.o(.data) for ZGyroAngle
==============================================================================

Removing Unused input sections from the image.

    Removing crc8.o(.text), (104 bytes).
    Removing crc8.o(.constdata), (257 bytes).
    Removing crc32.o(.text), (212 bytes).
    Removing crc32.o(.bss), (1024 bytes).
    Removing crc32.o(.constdata), (4 bytes).
    Removing crc32.o(.data), (1 bytes).
    Removing mafilter.o(.text), (300 bytes).
    Removing mafilter_i16.o(.text), (212 bytes).
    Removing mafilter_i32.o(.text), (202 bytes).
    Removing sprotocol.o(.text), (428 bytes).
    Removing can1task.o(.rev16_text), (4 bytes).
    Removing can1task.o(.revsh_text), (4 bytes).
    Removing can2task.o(.rev16_text), (4 bytes).
    Removing can2task.o(.revsh_text), (4 bytes).
    Removing inputtask.o(.rev16_text), (4 bytes).
    Removing inputtask.o(.revsh_text), (4 bytes).
    Removing controltask.o(.rev16_text), (4 bytes).
    Removing controltask.o(.revsh_text), (4 bytes).
==============================================================================

Image Symbol Table

    Local Symbols

    Symbol Name                              Value     Ov Type        Size  Object(Section)

    ../clib/../cmprslib/zerorunl2.c          0x00000000   Number         0  __dczerorl2.o ABSOLUTE
    ../clib/microlib/init/entry.s            0x00000000   Number         0  entry2.o ABSOLUTE
    ../clib/microlib/init/entry.s            0x00000000   Number         0  entry5.o ABSOLUTE
    ../clib/microlib/init/entry.s            0x00000000   Number         0  entry.o ABSOLUTE
    ../clib/microlib/init/entry.s            0x00000000   Number         0  entry7a.o ABSOLUTE
    ../clib/microlib/init/entry.s            0x00000000   Number         0  entry7b.o ABSOLUTE
    ../clib/microlib/init/entry.s            0x00000000   Number         0  entry9a.o ABSOLUTE
    ../clib/microlib/init/entry.s            0x00000000   Number         0  entry9b.o ABSOLUTE
    ../clib/microlib/init/entry.s            0x00000000   Number         0  entry10a.o ABSOLUTE
    ../clib/microlib/init/entry.s            0x00000000   Number         0  entry8b.o ABSOLUTE
    ../clib/microlib/init/entry.s            0x00000000   Number         0  entry8a.o ABSOLUTE
    ../clib/microlib/init/entry.s            0x00000000   Number         0  entry11b.o ABSOLUTE
    ../clib/microlib/init/entry.s            0x00000000   Number         0  entry11a.o ABSOLUTE
    ../clib/microlib/init/entry.s            0x00000000   Number         0  entry10b.o ABSOLUTE
    ../clib/microlib/malloc/malloc.c         0x00000000   Number         0  mallocr.o ABSOLUTE
    ../clib/microlib/malloc/malloc.c         0x00000000   Number         0  malloca.o ABSOLUTE
    ../clib/microlib/malloc/malloc.c         0x00000000   Number         0  mallocra.o ABSOLUTE
    ../clib/microlib/malloc/malloc.c         0x00000000   Number         0  malloc.o ABSOLUTE
    ../clib/microlib/malloc/mvars.c          0x00000000   Number         0  mvars.o ABSOLUTE
    ../clib/microlib/string/memcpy.c         0x00000000   Number         0  memcpyb.o ABSOLUTE
    ../clib/microlib/string/memcpy.c         0x00000000   Number         0  memcpya.o ABSOLUTE
    ../clib/microlib/string/memset.c         0x00000000   Number         0  memseta.o ABSOLUTE
    ..\\app\\Can1Task.c                      0x00000000   Number         0  can1task.o ABSOLUTE
    ..\\app\\Can2Task.c                      0x00000000   Number         0  can2task.o ABSOLUTE
    ..\\app\\ControlTask.c                   0x00000000   Number         0  controltask.o ABSOLUTE
    ..\\app\\InputTask.c                     0x00000000   Number         0  inputtask.o ABSOLUTE
    ..\\app\\OdomTask.c                      0x00000000   Number         0  odomtask.o ABSOLUTE
    ..\\bsp\\QuadEncoder.c                   0x00000000   Number         0  quadencoder.o ABSOLUTE
    ..\\bsp\\bsp.c                           0x00000000   Number         0  bsp.o ABSOLUTE
    ..\\bsp\\can1.c                          0x00000000   Number         0  can1.o ABSOLUTE
    ..\\bsp\\can2.c                          0x00000000   Number         0  can2.o ABSOLUTE
    ..\\bsp\\delay.c                         0x00000000   Number         0  delay.o ABSOLUTE
    ..\\bsp\\encoder.c                       0x00000000   Number         0  encoder.o ABSOLUTE
    ..\\bsp\\led.c                           0x00000000   Number         0  led.o ABSOLUTE
    ..\\bsp\\motor.c                         0x00000000   Number         0  motor.o ABSOLUTE
    ..\\bsp\\pwm.c                           0x00000000   Number         0  pwm.o ABSOLUTE
    ..\\bsp\\timer.c                         0x00000000   Number         0  timer.o ABSOLUTE
    ..\\bsp\\usart1.c                        0x00000000   Number         0  usart1.o ABSOLUTE
    ..\\bsp\\usart3.c                        0x00000000   Number         0  usart3.o ABSOLUTE
    ..\\bsp\\zgyro.c                         0x00000000   Number         0  zgyro.o ABSOLUTE
    ..\\lib\\misc.c                          0x00000000   Number         0  misc.o ABSOLUTE
    ..\\lib\\stm32f4xx_can.c                 0x00000000   Number         0  stm32f4xx_can.o ABSOLUTE
    ..\\lib\\stm32f4xx_dma.c                 0x00000000   Number         0  stm32f4xx_dma.o ABSOLUTE
    ..\\lib\\stm32f4xx_flash.c               0x00000000   Number         0  stm32f4xx_flash.o ABSOLUTE
    ..\\lib\\stm32f4xx_gpio.c                0x00000000   Number         0  stm32f4xx_gpio.o ABSOLUTE
    ..\\lib\\stm32f4xx_rcc.c                 0x00000000   Number         0  stm32f4xx_rcc.o ABSOLUTE
    ..\\lib\\stm32f4xx_syscfg.c              0x00000000   Number         0  stm32f4xx_syscfg.o ABSOLUTE
    ..\\lib\\stm32f4xx_tim.c                 0x00000000   Number         0  stm32f4xx_tim.o ABSOLUTE
    ..\\lib\\stm32f4xx_usart.c               0x00000000   Number         0  stm32f4xx_usart.o ABSOLUTE
    ..\\lib\\system_stm32f4xx.c              0x00000000   Number         0  system_stm32f4xx.o ABSOLUTE
    ..\\usr\\main.c                          0x00000000   Number         0  main.o ABSOLUTE
    ..\alg\crc\crc16.c                       0x00000000   Number         0  crc16.o ABSOLUTE
    ..\alg\crc\crc32.c                       0x00000000   Number         0  crc32.o ABSOLUTE
    ..\alg\crc\crc8.c                        0x00000000   Number         0  crc8.o ABSOLUTE
    ..\alg\fifo\fifo.c                       0x00000000   Number         0  fifo.o ABSOLUTE
    ..\alg\mafilter\mafilter.c               0x00000000   Number         0  mafilter.o ABSOLUTE
    ..\alg\mafilter\mafilter_f32.c           0x00000000   Number         0  mafilter_f32.o ABSOLUTE
    ..\alg\mafilter\mafilter_i16.c           0x00000000   Number         0  mafilter_i16.o ABSOLUTE
    ..\alg\mafilter\mafilter_i32.c           0x00000000   Number         0  mafilter_i32.o ABSOLUTE
    ..\alg\mecanum\mecanum.c                 0x00000000   Number         0  mecanum.o ABSOLUTE
    ..\alg\pid\pid.c                         0x00000000   Number         0  pid.o ABSOLUTE
    ..\alg\ramp\ramp.c                       0x00000000   Number         0  ramp.o ABSOLUTE
    ..\alg\sprotocol\sprotocol.c             0x00000000   Number         0  sprotocol.o ABSOLUTE
    ..\app\Can1Task.c                        0x00000000   Number         0  can1task.o ABSOLUTE
    ..\app\Can2Task.c                        0x00000000   Number         0  can2task.o ABSOLUTE
    ..\app\ControlTask.c                     0x00000000   Number         0  controltask.o ABSOLUTE
    ..\app\InputTask.c                       0x00000000   Number         0  inputtask.o ABSOLUTE
    ..\app\OdomTask.c                        0x00000000   Number         0  odomtask.o ABSOLUTE
    ..\bsp\QuadEncoder.c                     0x00000000   Number         0  quadencoder.o ABSOLUTE
    ..\bsp\bsp.c                             0x00000000   Number         0  bsp.o ABSOLUTE
    ..\bsp\can1.c                            0x00000000   Number         0  can1.o ABSOLUTE
    ..\bsp\can2.c                            0x00000000   Number         0  can2.o ABSOLUTE
    ..\bsp\dbus.c                            0x00000000   Number         0  dbus.o ABSOLUTE
    ..\bsp\delay.c                           0x00000000   Number         0  delay.o ABSOLUTE
    ..\bsp\encoder.c                         0x00000000   Number         0  encoder.o ABSOLUTE
    ..\bsp\led.c                             0x00000000   Number         0  led.o ABSOLUTE
    ..\bsp\motor.c                           0x00000000   Number         0  motor.o ABSOLUTE
    ..\bsp\pwm.c                             0x00000000   Number         0  pwm.o ABSOLUTE
    ..\bsp\timer.c                           0x00000000   Number         0  timer.o ABSOLUTE
    ..\bsp\usart1.c                          0x00000000   Number         0  usart1.o ABSOLUTE
    ..\bsp\usart3.c                          0x00000000   Number         0  usart3.o ABSOLUTE
    ..\bsp\zgyro.c                           0x00000000   Number         0  zgyro.o ABSOLUTE
    ..\lib\misc.c                            0x00000000   Number         0  misc.o ABSOLUTE
    ..\lib\startup_stm32f4xx.s               0x00000000   Number         0  startup_stm32f4xx.o ABSOLUTE
    ..\lib\stm32f4xx_can.c                   0x00000000   Number         0  stm32f4xx_can.o ABSOLUTE
    ..\lib\stm32f4xx_dma.c                   0x00000000   Number         0  stm32f4xx_dma.o ABSOLUTE
    ..\lib\stm32f4xx_flash.c                 0x00000000   Number         0  stm32f4xx_flash.o ABSOLUTE
    ..\lib\stm32f4xx_gpio.c                  0x00000000   Number         0  stm32f4xx_gpio.o ABSOLUTE
    ..\lib\stm32f4xx_rcc.c                   0x00000000   Number         0  stm32f4xx_rcc.o ABSOLUTE
    ..\lib\stm32f4xx_syscfg.c                0x00000000   Number         0  stm32f4xx_syscfg.o ABSOLUTE
    ..\lib\stm32f4xx_tim.c                   0x00000000   Number         0  stm32f4xx_tim.o ABSOLUTE
    ..\lib\stm32f4xx_usart.c                 0x00000000   Number         0  stm32f4xx_usart.o ABSOLUTE
    ..\lib\system_stm32f4xx.c                0x00000000   Number         0  system_stm32f4xx.o ABSOLUTE
    ..\usr\main.c                            0x00000000   Number         0  main.o ABSOLUTE
    dc.s                                     0x00000000   Number         0  dc.o ABSOLUTE
    handlers.s                               0x00000000   Number         0  handlers.o ABSOLUTE
    init.s                                   0x00000000   Number         0  init.o ABSOLUTE
    RESET                                    0x08000000   Section      392  startup_stm32f4xx.o(RESET)
    .ARM.Collect$$$$00000000                 0x08000188   Section        0  entry.o(.ARM.Collect$$$$00000000)
    .ARM.Collect$$$$00000001                 0x08000188   Section        4  entry2.o(.ARM.Collect$$$$00000001)
    .ARM.Collect$$$$00000004                 0x0800018c   Section        4  entry5.o(.ARM.Collect$$$$00000004)
    .ARM.Collect$$$$00000008                 0x08000190   Section        0  entry7b.o(.ARM.Collect$$$$00000008)
    .ARM.Collect$$$$0000000A                 0x08000190   Section        0  entry8b.o(.ARM.Collect$$$$0000000A)
    .ARM.Collect$$$$0000000B                 0x08000190   Section        8  entry9a.o(.ARM.Collect$$$$0000000B)
    .ARM.Collect$$$$0000000D                 0x08000198   Section        0  entry10a.o(.ARM.Collect$$$$0000000D)
    .ARM.Collect$$$$0000000F                 0x08000198   Section        0  entry11a.o(.ARM.Collect$$$$0000000F)
    .ARM.Collect$$$$00002712                 0x08000198   Section        4  entry2.o(.ARM.Collect$$$$00002712)
    __lit__00000000                          0x08000198   Data           4  entry2.o(.ARM.Collect$$$$00002712)
    .text                                    0x0800019c   Section        0  crc16.o(.text)
    .text                                    0x08000238   Section        0  fifo.o(.text)
    .text                                    0x080003ec   Section        0  mafilter_f32.o(.text)
    .text                                    0x08000518   Section        0  pid.o(.text)
    .text                                    0x080006d4   Section        0  ramp.o(.text)
    .text                                    0x0800075c   Section        0  mecanum.o(.text)
    .text                                    0x0800089c   Section        0  can1task.o(.text)
    .text                                    0x080008ec   Section        0  can2task.o(.text)
    .text                                    0x08000970   Section        0  inputtask.o(.text)
    .text                                    0x08001340   Section        0  controltask.o(.text)
    .text                                    0x08001874   Section        0  odomtask.o(.text)
    .text                                    0x08001988   Section        0  bsp.o(.text)
    .text                                    0x080019c4   Section        0  can1.o(.text)
    .text                                    0x08001b1c   Section        0  can2.o(.text)
    .text                                    0x08001c6c   Section        0  dbus.o(.text)
    .text                                    0x08001db4   Section        0  encoder.o(.text)
    .text                                    0x08001f38   Section        0  led.o(.text)
    .text                                    0x08001f78   Section        0  motor.o(.text)
    .text                                    0x08002028   Section        0  pwm.o(.text)
    .text                                    0x080021f0   Section        0  timer.o(.text)
    .text                                    0x080022d8   Section        0  usart1.o(.text)
    .text                                    0x080024a8   Section        0  usart3.o(.text)
    .text                                    0x0800261c   Section        0  misc.o(.text)
    .text                                    0x080026fc   Section        0  stm32f4xx_can.o(.text)
    CheckITStatus                            0x08002eff   Thumb Code    18  stm32f4xx_can.o(.text)
    .text                                    0x080030ec   Section        0  stm32f4xx_dma.o(.text)
    .text                                    0x08003494   Section        0  stm32f4xx_gpio.o(.text)
    .text                                    0x080036f0   Section        0  stm32f4xx_rcc.o(.text)
    .text                                    0x08003c78   Section        0  stm32f4xx_tim.o(.text)
    TI4_Config                               0x08004417   Thumb Code    80  stm32f4xx_tim.o(.text)
    TI3_Config                               0x08004479   Thumb Code    72  stm32f4xx_tim.o(.text)
    TI2_Config                               0x080044db   Thumb Code    90  stm32f4xx_tim.o(.text)
    TI1_Config                               0x08004547   Thumb Code    58  stm32f4xx_tim.o(.text)
    .text                                    0x0800491c   Section        0  stm32f4xx_usart.o(.text)
    .text                                    0x08004d38   Section        0  system_stm32f4xx.o(.text)
    SetSysClock                              0x08004d39   Thumb Code   220  system_stm32f4xx.o(.text)
    .text                                    0x08004f48   Section       36  startup_stm32f4xx.o(.text)
    $v0                                      0x08004f48   Number         0  startup_stm32f4xx.o(.text)
    .text                                    0x08004f6c   Section        0  main.o(.text)
    .text                                    0x08004f8c   Section        0  memseta.o(.text)
    .text                                    0x08004fb0   Section       36  init.o(.text)
    .text                                    0x08004fd4   Section        0  __dczerorl2.o(.text)
    i.__scatterload_copy                     0x0800502a   Section       14  handlers.o(i.__scatterload_copy)
    i.__scatterload_null                     0x08005038   Section        2  handlers.o(i.__scatterload_null)
    i.__scatterload_zeroinit                 0x0800503a   Section       14  handlers.o(i.__scatterload_zeroinit)
    i.free                                   0x08005048   Section        0  malloc.o(i.free)
    i.malloc                                 0x08005098   Section        0  malloc.o(i.malloc)
    .constdata                               0x08005104   Section      514  crc16.o(.constdata)
    .data                                    0x20000000   Section        4  can1task.o(.data)
    .data                                    0x20000004   Section       48  inputtask.o(.data)
    .data                                    0x20000034   Section      916  controltask.o(.data)
    ms_tick                                  0x200003c4   Data           4  controltask.o(.data)
    .data                                    0x200003c8   Section        8  usart1.o(.data)
    this_time_rx_len                         0x200003cc   Data           4  usart1.o(.data)
    .data                                    0x200003d0   Section        4  usart3.o(.data)
    .data                                    0x200003d4   Section       16  stm32f4xx_rcc.o(.data)
    APBAHBPrescTable                         0x200003d4   Data          16  stm32f4xx_rcc.o(.data)
    .data                                    0x200003e4   Section       20  system_stm32f4xx.o(.data)
    .data                                    0x200003f8   Section        4  mvars.o(.data)
    .data                                    0x200003fc   Section        4  mvars.o(.data)
    .bss                                     0x20000400   Section      552  can2task.o(.bss)
    .bss                                     0x20000628   Section       60  inputtask.o(.bss)
    .bss                                     0x20000664   Section       84  controltask.o(.bss)
    .bss                                     0x200006b8   Section       16  odomtask.o(.bss)
    .bss                                     0x200006c8   Section       20  can1.o(.bss)
    .bss                                     0x200006dc   Section       20  can2.o(.bss)
    .bss                                     0x200006f0   Section       94  usart1.o(.bss)
    HEAP                                     0x20000750   Section      512  startup_stm32f4xx.o(HEAP)
    STACK                                    0x20000950   Section     2560  startup_stm32f4xx.o(STACK)

    Global Symbols

    Symbol Name                              Value     Ov Type        Size  Object(Section)

    BuildAttributes$$THM_ISAv4$E$P$D$K$B$S$7EM$VFPi3$EXTD16$VFPS$VFMA$PE$A:L22UL41UL21$X:L11$S22US41US21$IEEE1$IW$USESV6$~STKCKD$USESV7$~SHL$OSPACE$EBA8$MICROLIB$REQ8$PRES8$EABIv2 0x00000000   Number         0  anon$$obj.o ABSOLUTE
    __ARM_use_no_argv                        0x00000000   Number         0  main.o ABSOLUTE
    __cpp_initialize__aeabi_                  - Undefined Weak Reference
    __cxa_finalize                            - Undefined Weak Reference
    _clock_init                               - Undefined Weak Reference
    _microlib_exit                            - Undefined Weak Reference
    __Vectors_Size                           0x00000188   Number         0  startup_stm32f4xx.o ABSOLUTE
    __Vectors                                0x08000000   Data           4  startup_stm32f4xx.o(RESET)
    __Vectors_End                            0x08000188   Data           0  startup_stm32f4xx.o(RESET)
    __main                                   0x08000189   Thumb Code     0  entry.o(.ARM.Collect$$$$00000000)
    _main_stk                                0x08000189   Thumb Code     0  entry2.o(.ARM.Collect$$$$00000001)
    _main_scatterload                        0x0800018d   Thumb Code     0  entry5.o(.ARM.Collect$$$$00000004)
    __main_after_scatterload                 0x08000191   Thumb Code     0  entry5.o(.ARM.Collect$$$$00000004)
    _main_clock                              0x08000191   Thumb Code     0  entry7b.o(.ARM.Collect$$$$00000008)
    _main_cpp_init                           0x08000191   Thumb Code     0  entry8b.o(.ARM.Collect$$$$0000000A)
    _main_init                               0x08000191   Thumb Code     0  entry9a.o(.ARM.Collect$$$$0000000B)
    __rt_final_cpp                           0x08000199   Thumb Code     0  entry10a.o(.ARM.Collect$$$$0000000D)
    __rt_final_exit                          0x08000199   Thumb Code     0  entry11a.o(.ARM.Collect$$$$0000000F)
    CRC16Calc                                0x0800019d   Thumb Code    48  crc16.o(.text)
    CRC16Check                               0x080001cd   Thumb Code    58  crc16.o(.text)
    CRC16Append                              0x08000207   Thumb Code    44  crc16.o(.text)
    FIFO_Create                              0x08000239   Thumb Code    54  fifo.o(.text)
    FIFO_Init                                0x0800026f   Thumb Code    12  fifo.o(.text)
    FIFO_Flush                               0x0800027b   Thumb Code     8  fifo.o(.text)
    FIFO_Push                                0x08000283   Thumb Code    72  fifo.o(.text)
    FIFO_PushBlock                           0x080002cb   Thumb Code    38  fifo.o(.text)
    FIFO_IsEmpty                             0x080002f1   Thumb Code    18  fifo.o(.text)
    FIFO_Pop                                 0x08000303   Thumb Code    34  fifo.o(.text)
    FIFO_GetUsedSpace                        0x08000325   Thumb Code    10  fifo.o(.text)
    FIFO_PopBlock                            0x0800032f   Thumb Code    46  fifo.o(.text)
    FIFO_Preread                             0x0800035d   Thumb Code    28  fifo.o(.text)
    FIFO_PrereadBlock                        0x08000379   Thumb Code    66  fifo.o(.text)
    FIFO_IsFull                              0x080003bb   Thumb Code    22  fifo.o(.text)
    FIFO_GetFreeSpace                        0x080003d1   Thumb Code    14  fifo.o(.text)
    FIFO_Destroy                             0x080003df   Thumb Code    14  fifo.o(.text)
    MAFilterF32_Init                         0x080003ed   Thumb Code    34  mafilter_f32.o(.text)
    MAFilterF32_Create                       0x0800040f   Thumb Code   110  mafilter_f32.o(.text)
    MAFilterF32_Calc                         0x0800047d   Thumb Code    94  mafilter_f32.o(.text)
    MAFilterF32_Reset                        0x080004db   Thumb Code    58  mafilter_f32.o(.text)
    PID_Reset                                0x08000519   Thumb Code    50  pid.o(.text)
    PID_Calc                                 0x0800054b   Thumb Code   390  pid.o(.text)
    Ramp_Init                                0x080006d5   Thumb Code     4  ramp.o(.text)
    Ramp_Calc                                0x080006d9   Thumb Code    60  ramp.o(.text)
    Ramp_SetCounter                          0x08000715   Thumb Code     4  ramp.o(.text)
    Ramp_ResetCounter                        0x08000719   Thumb Code    14  ramp.o(.text)
    Ramp_SetScale                            0x08000727   Thumb Code     4  ramp.o(.text)
    Ramp_IsOverflow                          0x0800072b   Thumb Code    38  ramp.o(.text)
    Ramp_GetDir                              0x08000751   Thumb Code     6  ramp.o(.text)
    Ramp_SetDir                              0x08000757   Thumb Code     4  ramp.o(.text)
    Mecanum_Synthesis                        0x0800075d   Thumb Code   158  mecanum.o(.text)
    Mecanum_Decompose                        0x080007fb   Thumb Code   154  mecanum.o(.text)
    Can1Task                                 0x0800089d   Thumb Code    68  can1task.o(.text)
    Can2Task                                 0x080008ed   Thumb Code   102  can2task.o(.text)
    GetInputMode                             0x08000971   Thumb Code    62  inputtask.o(.text)
    GetCtrlMode                              0x080009af   Thumb Code    62  inputtask.o(.text)
    GetSwitchState                           0x080009ed   Thumb Code    18  inputtask.o(.text)
    GetKeyAction                             0x080009ff   Thumb Code    18  inputtask.o(.text)
    GetSwitchPanel                           0x08000a11   Thumb Code    26  inputtask.o(.text)
    GetKeyboard                              0x08000a2b   Thumb Code   130  inputtask.o(.text)
    GetStickCtrlChassisPosition              0x08000aad   Thumb Code   142  inputtask.o(.text)
    GetStickCtrlChassisSpeed                 0x08000b3b   Thumb Code   142  inputtask.o(.text)
    GetStickCtrlChassisCurrent               0x08000bc9   Thumb Code   142  inputtask.o(.text)
    GetStickCtrlGimbalsPosition              0x08000c57   Thumb Code    96  inputtask.o(.text)
    GetStickCtrlGimbalsSpeed                 0x08000cb7   Thumb Code    96  inputtask.o(.text)
    GetStickCtrlGimbalsCurrent               0x08000d17   Thumb Code   170  inputtask.o(.text)
    GetKeyboardCtrlChassisPosition           0x08000dc1   Thumb Code   290  inputtask.o(.text)
    GetKeyboardCtrlChassisSpeed              0x08000ee3   Thumb Code   290  inputtask.o(.text)
    GetKeyboardCtrlChassisCurrent            0x08001005   Thumb Code   290  inputtask.o(.text)
    GetMouseCtrlGimbalsPosition              0x08001127   Thumb Code   100  inputtask.o(.text)
    GetMouseCtrlGimbalsSpeed                 0x0800118b   Thumb Code   170  inputtask.o(.text)
    GetMouseCtrlGimbalsCurrent               0x08001235   Thumb Code   100  inputtask.o(.text)
    InputTask                                0x08001299   Thumb Code   144  inputtask.o(.text)
    WorkingStateSM                           0x08001341   Thumb Code   152  controltask.o(.text)
    ChassisPositionControl                   0x080013d9   Thumb Code   142  controltask.o(.text)
    ChassisSpeedControl                      0x08001467   Thumb Code   134  controltask.o(.text)
    ChassisCurrentControl                    0x080014ed   Thumb Code   150  controltask.o(.text)
    GimbalsPositionControl                   0x08001583   Thumb Code    82  controltask.o(.text)
    GimbalsSpeedControl                      0x080015d5   Thumb Code    82  controltask.o(.text)
    GimbalsCurrentControl                    0x08001627   Thumb Code    72  controltask.o(.text)
    PID_ResetAll                             0x0800166f   Thumb Code    64  controltask.o(.text)
    Encoder_ResetAll                         0x080016af   Thumb Code    40  controltask.o(.text)
    Ramp_ResetAll                            0x080016d7   Thumb Code    16  controltask.o(.text)
    Controller_Reset                         0x080016e7   Thumb Code    16  controltask.o(.text)
    ChassisMotorCurrentTransmit              0x080016f7   Thumb Code    32  controltask.o(.text)
    GimbalsMotorCurrentTransmit              0x08001717   Thumb Code   154  controltask.o(.text)
    ControlTask                              0x080017b1   Thumb Code   180  controltask.o(.text)
    OdomTask                                 0x08001875   Thumb Code   250  odomtask.o(.text)
    BSP_Config                               0x08001989   Thumb Code    56  bsp.o(.text)
    CAN1_Config                              0x080019c5   Thumb Code   262  can1.o(.text)
    CAN1_TX_IRQHandler                       0x08001acb   Thumb Code    22  can1.o(.text)
    CAN1_RX0_IRQHandler                      0x08001ae1   Thumb Code    44  can1.o(.text)
    CAN2_Config                              0x08001b1d   Thumb Code   264  can2.o(.text)
    CAN2_TX_IRQHandler                       0x08001c25   Thumb Code    22  can2.o(.text)
    CAN2_RX0_IRQHandler                      0x08001c3b   Thumb Code    36  can2.o(.text)
    RC_ENC                                   0x08001c6d   Thumb Code    64  dbus.o(.text)
    RC_DEC                                   0x08001cad   Thumb Code    86  dbus.o(.text)
    HC_ENC                                   0x08001d03   Thumb Code    60  dbus.o(.text)
    HC_DEC                                   0x08001d3f   Thumb Code    66  dbus.o(.text)
    DBUS_ENC                                 0x08001d81   Thumb Code    26  dbus.o(.text)
    DBUS_DEC                                 0x08001d9b   Thumb Code    26  dbus.o(.text)
    Encoder_Process                          0x08001db5   Thumb Code   342  encoder.o(.text)
    Encoder_IsOk                             0x08001f0b   Thumb Code    16  encoder.o(.text)
    Encoder_Reset                            0x08001f1b   Thumb Code    14  encoder.o(.text)
    Led_Config                               0x08001f39   Thumb Code    58  led.o(.text)
    SetCMCurrent                             0x08001f79   Thumb Code    92  motor.o(.text)
    SetGMCurrent                             0x08001fd5   Thumb Code    82  motor.o(.text)
    PWM_Config                               0x08002029   Thumb Code   434  pwm.o(.text)
    TIM6_Config                              0x080021f1   Thumb Code    72  timer.o(.text)
    TIM6_Start                               0x08002239   Thumb Code    30  timer.o(.text)
    TIM6_DAC_IRQHandler                      0x08002257   Thumb Code    34  timer.o(.text)
    TIM2_Config                              0x08002279   Thumb Code    60  timer.o(.text)
    TIM2_IRQHandler                          0x080022b5   Thumb Code    30  timer.o(.text)
    USART1_Config                            0x080022d9   Thumb Code   298  usart1.o(.text)
    USART1_IRQHandler                        0x08002403   Thumb Code   134  usart1.o(.text)
    USART3_Config                            0x080024a9   Thumb Code   184  usart3.o(.text)
    USART3_Print                             0x08002561   Thumb Code    28  usart3.o(.text)
    USART3_PrintBlock                        0x0800257d   Thumb Code    32  usart3.o(.text)
    fputc                                    0x0800259d   Thumb Code    32  usart3.o(.text)
    USART3_IRQHandler                        0x080025bd   Thumb Code    84  usart3.o(.text)
    NVIC_PriorityGroupConfig                 0x0800261d   Thumb Code    10  misc.o(.text)
    NVIC_Init                                0x08002627   Thumb Code   106  misc.o(.text)
    NVIC_SetVectorTable                      0x08002691   Thumb Code    14  misc.o(.text)
    NVIC_SystemLPConfig                      0x0800269f   Thumb Code    34  misc.o(.text)
    SysTick_CLKSourceConfig                  0x080026c1   Thumb Code    40  misc.o(.text)
    CAN_DeInit                               0x080026fd   Thumb Code    50  stm32f4xx_can.o(.text)
    CAN_Init                                 0x0800272f   Thumb Code   276  stm32f4xx_can.o(.text)
    CAN_FilterInit                           0x08002843   Thumb Code   258  stm32f4xx_can.o(.text)
    CAN_StructInit                           0x08002945   Thumb Code    32  stm32f4xx_can.o(.text)
    CAN_SlaveStartBank                       0x08002965   Thumb Code    48  stm32f4xx_can.o(.text)
    CAN_DBGFreeze                            0x08002995   Thumb Code    22  stm32f4xx_can.o(.text)
    CAN_TTComModeCmd                         0x080029ab   Thumb Code   118  stm32f4xx_can.o(.text)
    CAN_Transmit                             0x08002a21   Thumb Code   304  stm32f4xx_can.o(.text)
    CAN_TransmitStatus                       0x08002b51   Thumb Code   138  stm32f4xx_can.o(.text)
    CAN_CancelTransmit                       0x08002bdb   Thumb Code    48  stm32f4xx_can.o(.text)
    CAN_Receive                              0x08002c0b   Thumb Code   240  stm32f4xx_can.o(.text)
    CAN_FIFORelease                          0x08002cfb   Thumb Code    22  stm32f4xx_can.o(.text)
    CAN_MessagePending                       0x08002d11   Thumb Code    30  stm32f4xx_can.o(.text)
    CAN_OperatingModeRequest                 0x08002d2f   Thumb Code   162  stm32f4xx_can.o(.text)
    CAN_Sleep                                0x08002dd1   Thumb Code    30  stm32f4xx_can.o(.text)
    CAN_WakeUp                               0x08002def   Thumb Code    48  stm32f4xx_can.o(.text)
    CAN_GetLastErrorCode                     0x08002e1f   Thumb Code    12  stm32f4xx_can.o(.text)
    CAN_GetReceiveErrorCounter               0x08002e2b   Thumb Code    10  stm32f4xx_can.o(.text)
    CAN_GetLSBTransmitErrorCounter           0x08002e35   Thumb Code    12  stm32f4xx_can.o(.text)
    CAN_ITConfig                             0x08002e41   Thumb Code    18  stm32f4xx_can.o(.text)
    CAN_GetFlagStatus                        0x08002e53   Thumb Code   120  stm32f4xx_can.o(.text)
    CAN_ClearFlag                            0x08002ecb   Thumb Code    52  stm32f4xx_can.o(.text)
    CAN_GetITStatus                          0x08002f11   Thumb Code   310  stm32f4xx_can.o(.text)
    CAN_ClearITPendingBit                    0x08003047   Thumb Code   162  stm32f4xx_can.o(.text)
    DMA_DeInit                               0x080030ed   Thumb Code   324  stm32f4xx_dma.o(.text)
    DMA_Init                                 0x08003231   Thumb Code    82  stm32f4xx_dma.o(.text)
    DMA_StructInit                           0x08003283   Thumb Code    34  stm32f4xx_dma.o(.text)
    DMA_Cmd                                  0x080032a5   Thumb Code    22  stm32f4xx_dma.o(.text)
    DMA_PeriphIncOffsetSizeConfig            0x080032bb   Thumb Code    22  stm32f4xx_dma.o(.text)
    DMA_FlowControllerConfig                 0x080032d1   Thumb Code    22  stm32f4xx_dma.o(.text)
    DMA_SetCurrDataCounter                   0x080032e7   Thumb Code     4  stm32f4xx_dma.o(.text)
    DMA_GetCurrDataCounter                   0x080032eb   Thumb Code     8  stm32f4xx_dma.o(.text)
    DMA_DoubleBufferModeConfig               0x080032f3   Thumb Code    24  stm32f4xx_dma.o(.text)
    DMA_DoubleBufferModeCmd                  0x0800330b   Thumb Code    22  stm32f4xx_dma.o(.text)
    DMA_MemoryTargetConfig                   0x08003321   Thumb Code    10  stm32f4xx_dma.o(.text)
    DMA_GetCurrentMemoryTarget               0x0800332b   Thumb Code    20  stm32f4xx_dma.o(.text)
    DMA_GetCmdStatus                         0x0800333f   Thumb Code    20  stm32f4xx_dma.o(.text)
    DMA_GetFIFOStatus                        0x08003353   Thumb Code    12  stm32f4xx_dma.o(.text)
    DMA_GetFlagStatus                        0x0800335f   Thumb Code    56  stm32f4xx_dma.o(.text)
    DMA_ClearFlag                            0x08003397   Thumb Code    40  stm32f4xx_dma.o(.text)
    DMA_ITConfig                             0x080033bf   Thumb Code    58  stm32f4xx_dma.o(.text)
    DMA_GetITStatus                          0x080033f9   Thumb Code    84  stm32f4xx_dma.o(.text)
    DMA_ClearITPendingBit                    0x0800344d   Thumb Code    40  stm32f4xx_dma.o(.text)
    GPIO_DeInit                              0x08003495   Thumb Code   220  stm32f4xx_gpio.o(.text)
    GPIO_Init                                0x08003571   Thumb Code   144  stm32f4xx_gpio.o(.text)
    GPIO_StructInit                          0x08003601   Thumb Code    18  stm32f4xx_gpio.o(.text)
    GPIO_PinLockConfig                       0x08003613   Thumb Code    34  stm32f4xx_gpio.o(.text)
    GPIO_ReadInputDataBit                    0x08003635   Thumb Code    18  stm32f4xx_gpio.o(.text)
    GPIO_ReadInputData                       0x08003647   Thumb Code     8  stm32f4xx_gpio.o(.text)
    GPIO_ReadOutputDataBit                   0x0800364f   Thumb Code    18  stm32f4xx_gpio.o(.text)
    GPIO_ReadOutputData                      0x08003661   Thumb Code     8  stm32f4xx_gpio.o(.text)
    GPIO_SetBits                             0x08003669   Thumb Code     4  stm32f4xx_gpio.o(.text)
    GPIO_ResetBits                           0x0800366d   Thumb Code     4  stm32f4xx_gpio.o(.text)
    GPIO_WriteBit                            0x08003671   Thumb Code    10  stm32f4xx_gpio.o(.text)
    GPIO_Write                               0x0800367b   Thumb Code     4  stm32f4xx_gpio.o(.text)
    GPIO_ToggleBits                          0x0800367f   Thumb Code     8  stm32f4xx_gpio.o(.text)
    GPIO_PinAFConfig                         0x08003687   Thumb Code    70  stm32f4xx_gpio.o(.text)
    RCC_DeInit                               0x080036f1   Thumb Code    60  stm32f4xx_rcc.o(.text)
    RCC_HSEConfig                            0x0800372d   Thumb Code    14  stm32f4xx_rcc.o(.text)
    RCC_GetFlagStatus                        0x0800373b   Thumb Code    60  stm32f4xx_rcc.o(.text)
    RCC_WaitForHSEStartUp                    0x08003777   Thumb Code    56  stm32f4xx_rcc.o(.text)
    RCC_AdjustHSICalibrationValue            0x080037af   Thumb Code    20  stm32f4xx_rcc.o(.text)
    RCC_HSICmd                               0x080037c3   Thumb Code     6  stm32f4xx_rcc.o(.text)
    RCC_LSEConfig                            0x080037c9   Thumb Code    46  stm32f4xx_rcc.o(.text)
    RCC_LSICmd                               0x080037f7   Thumb Code     6  stm32f4xx_rcc.o(.text)
    RCC_PLLConfig                            0x080037fd   Thumb Code    32  stm32f4xx_rcc.o(.text)
    RCC_PLLCmd                               0x0800381d   Thumb Code     6  stm32f4xx_rcc.o(.text)
    RCC_PLLI2SConfig                         0x08003823   Thumb Code    14  stm32f4xx_rcc.o(.text)
    RCC_PLLI2SCmd                            0x08003831   Thumb Code     6  stm32f4xx_rcc.o(.text)
    RCC_ClockSecuritySystemCmd               0x08003837   Thumb Code     6  stm32f4xx_rcc.o(.text)
    RCC_MCO1Config                           0x0800383d   Thumb Code    28  stm32f4xx_rcc.o(.text)
    RCC_MCO2Config                           0x08003859   Thumb Code    28  stm32f4xx_rcc.o(.text)
    RCC_SYSCLKConfig                         0x08003875   Thumb Code    20  stm32f4xx_rcc.o(.text)
    RCC_GetSYSCLKSource                      0x08003889   Thumb Code    12  stm32f4xx_rcc.o(.text)
    RCC_HCLKConfig                           0x08003895   Thumb Code    20  stm32f4xx_rcc.o(.text)
    RCC_PCLK1Config                          0x080038a9   Thumb Code    20  stm32f4xx_rcc.o(.text)
    RCC_PCLK2Config                          0x080038bd   Thumb Code    22  stm32f4xx_rcc.o(.text)
    RCC_GetClocksFreq                        0x080038d3   Thumb Code   222  stm32f4xx_rcc.o(.text)
    RCC_RTCCLKConfig                         0x080039b1   Thumb Code    54  stm32f4xx_rcc.o(.text)
    RCC_RTCCLKCmd                            0x080039e7   Thumb Code     8  stm32f4xx_rcc.o(.text)
    RCC_BackupResetCmd                       0x080039ef   Thumb Code     8  stm32f4xx_rcc.o(.text)
    RCC_I2SCLKConfig                         0x080039f7   Thumb Code     6  stm32f4xx_rcc.o(.text)
    RCC_AHB1PeriphClockCmd                   0x080039fd   Thumb Code    34  stm32f4xx_rcc.o(.text)
    RCC_AHB2PeriphClockCmd                   0x08003a1f   Thumb Code    34  stm32f4xx_rcc.o(.text)
    RCC_AHB3PeriphClockCmd                   0x08003a41   Thumb Code    34  stm32f4xx_rcc.o(.text)
    RCC_APB1PeriphClockCmd                   0x08003a63   Thumb Code    34  stm32f4xx_rcc.o(.text)
    RCC_APB2PeriphClockCmd                   0x08003a85   Thumb Code    34  stm32f4xx_rcc.o(.text)
    RCC_AHB1PeriphResetCmd                   0x08003aa7   Thumb Code    34  stm32f4xx_rcc.o(.text)
    RCC_AHB2PeriphResetCmd                   0x08003ac9   Thumb Code    72  stm32f4xx_rcc.o(.text)
    RCC_AHB3PeriphResetCmd                   0x08003b11   Thumb Code    34  stm32f4xx_rcc.o(.text)
    RCC_APB1PeriphResetCmd                   0x08003b33   Thumb Code    34  stm32f4xx_rcc.o(.text)
    RCC_APB2PeriphResetCmd                   0x08003b55   Thumb Code    34  stm32f4xx_rcc.o(.text)
    RCC_AHB1PeriphClockLPModeCmd             0x08003b77   Thumb Code    34  stm32f4xx_rcc.o(.text)
    RCC_AHB2PeriphClockLPModeCmd             0x08003b99   Thumb Code    34  stm32f4xx_rcc.o(.text)
    RCC_AHB3PeriphClockLPModeCmd             0x08003bbb   Thumb Code    34  stm32f4xx_rcc.o(.text)
    RCC_APB1PeriphClockLPModeCmd             0x08003bdd   Thumb Code    34  stm32f4xx_rcc.o(.text)
    RCC_APB2PeriphClockLPModeCmd             0x08003bff   Thumb Code    34  stm32f4xx_rcc.o(.text)
    RCC_ITConfig                             0x08003c21   Thumb Code    34  stm32f4xx_rcc.o(.text)
    RCC_ClearFlag                            0x08003c43   Thumb Code    18  stm32f4xx_rcc.o(.text)
    RCC_GetITStatus                          0x08003c55   Thumb Code    22  stm32f4xx_rcc.o(.text)
    RCC_ClearITPendingBit                    0x08003c6b   Thumb Code     8  stm32f4xx_rcc.o(.text)
    TIM_DeInit                               0x08003c79   Thumb Code   346  stm32f4xx_tim.o(.text)
    TIM_TimeBaseInit                         0x08003dd3   Thumb Code   104  stm32f4xx_tim.o(.text)
    TIM_TimeBaseStructInit                   0x08003e3b   Thumb Code    18  stm32f4xx_tim.o(.text)
    TIM_PrescalerConfig                      0x08003e4d   Thumb Code     6  stm32f4xx_tim.o(.text)
    TIM_CounterModeConfig                    0x08003e53   Thumb Code    18  stm32f4xx_tim.o(.text)
    TIM_SetCounter                           0x08003e65   Thumb Code     4  stm32f4xx_tim.o(.text)
    TIM_SetAutoreload                        0x08003e69   Thumb Code     4  stm32f4xx_tim.o(.text)
    TIM_GetCounter                           0x08003e6d   Thumb Code     6  stm32f4xx_tim.o(.text)
    TIM_GetPrescaler                         0x08003e73   Thumb Code     6  stm32f4xx_tim.o(.text)
    TIM_UpdateDisableConfig                  0x08003e79   Thumb Code    24  stm32f4xx_tim.o(.text)
    TIM_UpdateRequestConfig                  0x08003e91   Thumb Code    24  stm32f4xx_tim.o(.text)
    TIM_ARRPreloadConfig                     0x08003ea9   Thumb Code    24  stm32f4xx_tim.o(.text)
    TIM_SelectOnePulseMode                   0x08003ec1   Thumb Code    18  stm32f4xx_tim.o(.text)
    TIM_SetClockDivision                     0x08003ed3   Thumb Code    18  stm32f4xx_tim.o(.text)
    TIM_Cmd                                  0x08003ee5   Thumb Code    24  stm32f4xx_tim.o(.text)
    TIM_OC1Init                              0x08003efd   Thumb Code   114  stm32f4xx_tim.o(.text)
    TIM_OC2Init                              0x08003f6f   Thumb Code   154  stm32f4xx_tim.o(.text)
    TIM_OC3Init                              0x08004009   Thumb Code   204  stm32f4xx_tim.o(.text)
    TIM_OC4Init                              0x080040d5   Thumb Code   112  stm32f4xx_tim.o(.text)
    TIM_OCStructInit                         0x08004145   Thumb Code    20  stm32f4xx_tim.o(.text)
    TIM_SelectOCxM                           0x08004159   Thumb Code    86  stm32f4xx_tim.o(.text)
    TIM_SetCompare1                          0x080041af   Thumb Code     4  stm32f4xx_tim.o(.text)
    TIM_SetCompare2                          0x080041b3   Thumb Code     4  stm32f4xx_tim.o(.text)
    TIM_SetCompare3                          0x080041b7   Thumb Code     4  stm32f4xx_tim.o(.text)
    TIM_SetCompare4                          0x080041bb   Thumb Code     4  stm32f4xx_tim.o(.text)
    TIM_ForcedOC1Config                      0x080041bf   Thumb Code    18  stm32f4xx_tim.o(.text)
    TIM_ForcedOC2Config                      0x080041d1   Thumb Code    26  stm32f4xx_tim.o(.text)
    TIM_ForcedOC3Config                      0x080041eb   Thumb Code    18  stm32f4xx_tim.o(.text)
    TIM_ForcedOC4Config                      0x080041fd   Thumb Code    26  stm32f4xx_tim.o(.text)
    TIM_OC1PreloadConfig                     0x08004217   Thumb Code    18  stm32f4xx_tim.o(.text)
    TIM_OC2PreloadConfig                     0x08004229   Thumb Code    26  stm32f4xx_tim.o(.text)
    TIM_OC3PreloadConfig                     0x08004243   Thumb Code    18  stm32f4xx_tim.o(.text)
    TIM_OC4PreloadConfig                     0x08004255   Thumb Code    26  stm32f4xx_tim.o(.text)
    TIM_OC1FastConfig                        0x0800426f   Thumb Code    18  stm32f4xx_tim.o(.text)
    TIM_OC2FastConfig                        0x08004281   Thumb Code    26  stm32f4xx_tim.o(.text)
    TIM_OC3FastConfig                        0x0800429b   Thumb Code    18  stm32f4xx_tim.o(.text)
    TIM_OC4FastConfig                        0x080042ad   Thumb Code    26  stm32f4xx_tim.o(.text)
    TIM_ClearOC1Ref                          0x080042c7   Thumb Code    18  stm32f4xx_tim.o(.text)
    TIM_ClearOC2Ref                          0x080042d9   Thumb Code    24  stm32f4xx_tim.o(.text)
    TIM_ClearOC3Ref                          0x080042f1   Thumb Code    18  stm32f4xx_tim.o(.text)
    TIM_ClearOC4Ref                          0x08004303   Thumb Code    24  stm32f4xx_tim.o(.text)
    TIM_OC1PolarityConfig                    0x0800431b   Thumb Code    18  stm32f4xx_tim.o(.text)
    TIM_OC1NPolarityConfig                   0x0800432d   Thumb Code    18  stm32f4xx_tim.o(.text)
    TIM_OC2PolarityConfig                    0x0800433f   Thumb Code    26  stm32f4xx_tim.o(.text)
    TIM_OC2NPolarityConfig                   0x08004359   Thumb Code    26  stm32f4xx_tim.o(.text)
    TIM_OC3PolarityConfig                    0x08004373   Thumb Code    26  stm32f4xx_tim.o(.text)
    TIM_OC3NPolarityConfig                   0x0800438d   Thumb Code    26  stm32f4xx_tim.o(.text)
    TIM_OC4PolarityConfig                    0x080043a7   Thumb Code    26  stm32f4xx_tim.o(.text)
    TIM_CCxCmd                               0x080043c1   Thumb Code    30  stm32f4xx_tim.o(.text)
    TIM_CCxNCmd                              0x080043df   Thumb Code    30  stm32f4xx_tim.o(.text)
    TIM_SetIC4Prescaler                      0x080043fd   Thumb Code    26  stm32f4xx_tim.o(.text)
    TIM_SetIC3Prescaler                      0x08004467   Thumb Code    18  stm32f4xx_tim.o(.text)
    TIM_SetIC2Prescaler                      0x080044c1   Thumb Code    26  stm32f4xx_tim.o(.text)
    TIM_SetIC1Prescaler                      0x08004535   Thumb Code    18  stm32f4xx_tim.o(.text)
    TIM_ICInit                               0x08004581   Thumb Code   110  stm32f4xx_tim.o(.text)
    TIM_ICStructInit                         0x080045ef   Thumb Code    18  stm32f4xx_tim.o(.text)
    TIM_PWMIConfig                           0x08004601   Thumb Code   124  stm32f4xx_tim.o(.text)
    TIM_GetCapture1                          0x0800467d   Thumb Code     6  stm32f4xx_tim.o(.text)
    TIM_GetCapture2                          0x08004683   Thumb Code     6  stm32f4xx_tim.o(.text)
    TIM_GetCapture3                          0x08004689   Thumb Code     6  stm32f4xx_tim.o(.text)
    TIM_GetCapture4                          0x0800468f   Thumb Code     6  stm32f4xx_tim.o(.text)
    TIM_BDTRConfig                           0x08004695   Thumb Code    32  stm32f4xx_tim.o(.text)
    TIM_BDTRStructInit                       0x080046b5   Thumb Code    18  stm32f4xx_tim.o(.text)
    TIM_CtrlPWMOutputs                       0x080046c7   Thumb Code    30  stm32f4xx_tim.o(.text)
    TIM_SelectCOM                            0x080046e5   Thumb Code    24  stm32f4xx_tim.o(.text)
    TIM_CCPreloadControl                     0x080046fd   Thumb Code    24  stm32f4xx_tim.o(.text)
    TIM_ITConfig                             0x08004715   Thumb Code    18  stm32f4xx_tim.o(.text)
    TIM_GenerateEvent                        0x08004727   Thumb Code     4  stm32f4xx_tim.o(.text)
    TIM_GetFlagStatus                        0x0800472b   Thumb Code    18  stm32f4xx_tim.o(.text)
    TIM_ClearFlag                            0x0800473d   Thumb Code     6  stm32f4xx_tim.o(.text)
    TIM_GetITStatus                          0x08004743   Thumb Code    34  stm32f4xx_tim.o(.text)
    TIM_ClearITPendingBit                    0x08004765   Thumb Code     6  stm32f4xx_tim.o(.text)
    TIM_DMAConfig                            0x0800476b   Thumb Code    10  stm32f4xx_tim.o(.text)
    TIM_DMACmd                               0x08004775   Thumb Code    18  stm32f4xx_tim.o(.text)
    TIM_SelectCCDMA                          0x08004787   Thumb Code    24  stm32f4xx_tim.o(.text)
    TIM_InternalClockConfig                  0x0800479f   Thumb Code    12  stm32f4xx_tim.o(.text)
    TIM_SelectInputTrigger                   0x080047ab   Thumb Code    18  stm32f4xx_tim.o(.text)
    TIM_ITRxExternalClockConfig              0x080047bd   Thumb Code    24  stm32f4xx_tim.o(.text)
    TIM_TIxExternalClockConfig               0x080047d5   Thumb Code    62  stm32f4xx_tim.o(.text)
    TIM_ETRConfig                            0x08004813   Thumb Code    28  stm32f4xx_tim.o(.text)
    TIM_ETRClockMode1Config                  0x0800482f   Thumb Code    54  stm32f4xx_tim.o(.text)
    TIM_ETRClockMode2Config                  0x08004865   Thumb Code    32  stm32f4xx_tim.o(.text)
    TIM_SelectOutputTrigger                  0x08004885   Thumb Code    18  stm32f4xx_tim.o(.text)
    TIM_SelectSlaveMode                      0x08004897   Thumb Code    18  stm32f4xx_tim.o(.text)
    TIM_SelectMasterSlaveMode                0x080048a9   Thumb Code    18  stm32f4xx_tim.o(.text)
    TIM_EncoderInterfaceConfig               0x080048bb   Thumb Code    66  stm32f4xx_tim.o(.text)
    TIM_SelectHallSensor                     0x080048fd   Thumb Code    24  stm32f4xx_tim.o(.text)
    TIM_RemapConfig                          0x08004915   Thumb Code     6  stm32f4xx_tim.o(.text)
    USART_DeInit                             0x0800491d   Thumb Code   156  stm32f4xx_usart.o(.text)
    USART_Init                               0x080049b9   Thumb Code   204  stm32f4xx_usart.o(.text)
    USART_StructInit                         0x08004a85   Thumb Code    24  stm32f4xx_usart.o(.text)
    USART_ClockInit                          0x08004a9d   Thumb Code    32  stm32f4xx_usart.o(.text)
    USART_ClockStructInit                    0x08004abd   Thumb Code    12  stm32f4xx_usart.o(.text)
    USART_Cmd                                0x08004ac9   Thumb Code    24  stm32f4xx_usart.o(.text)
    USART_SetPrescaler                       0x08004ae1   Thumb Code    16  stm32f4xx_usart.o(.text)
    USART_OverSampling8Cmd                   0x08004af1   Thumb Code    22  stm32f4xx_usart.o(.text)
    USART_OneBitMethodCmd                    0x08004b07   Thumb Code    24  stm32f4xx_usart.o(.text)
    USART_SendData                           0x08004b1f   Thumb Code     8  stm32f4xx_usart.o(.text)
    USART_ReceiveData                        0x08004b27   Thumb Code    10  stm32f4xx_usart.o(.text)
    USART_SetAddress                         0x08004b31   Thumb Code    18  stm32f4xx_usart.o(.text)
    USART_ReceiverWakeUpCmd                  0x08004b43   Thumb Code    24  stm32f4xx_usart.o(.text)
    USART_WakeUpConfig                       0x08004b5b   Thumb Code    18  stm32f4xx_usart.o(.text)
    USART_LINBreakDetectLengthConfig         0x08004b6d   Thumb Code    18  stm32f4xx_usart.o(.text)
    USART_LINCmd                             0x08004b7f   Thumb Code    24  stm32f4xx_usart.o(.text)
    USART_SendBreak                          0x08004b97   Thumb Code    10  stm32f4xx_usart.o(.text)
    USART_HalfDuplexCmd                      0x08004ba1   Thumb Code    24  stm32f4xx_usart.o(.text)
    USART_SetGuardTime                       0x08004bb9   Thumb Code    16  stm32f4xx_usart.o(.text)
    USART_SmartCardCmd                       0x08004bc9   Thumb Code    24  stm32f4xx_usart.o(.text)
    USART_SmartCardNACKCmd                   0x08004be1   Thumb Code    24  stm32f4xx_usart.o(.text)
    USART_IrDAConfig                         0x08004bf9   Thumb Code    18  stm32f4xx_usart.o(.text)
    USART_IrDACmd                            0x08004c0b   Thumb Code    24  stm32f4xx_usart.o(.text)
    USART_DMACmd                             0x08004c23   Thumb Code    18  stm32f4xx_usart.o(.text)
    USART_ITConfig                           0x08004c35   Thumb Code    74  stm32f4xx_usart.o(.text)
    USART_GetFlagStatus                      0x08004c7f   Thumb Code    26  stm32f4xx_usart.o(.text)
    USART_ClearFlag                          0x08004c99   Thumb Code    18  stm32f4xx_usart.o(.text)
    USART_GetITStatus                        0x08004cab   Thumb Code   110  stm32f4xx_usart.o(.text)
    USART_ClearITPendingBit                  0x08004d19   Thumb Code    30  stm32f4xx_usart.o(.text)
    SystemInit                               0x08004e15   Thumb Code    88  system_stm32f4xx.o(.text)
    SystemCoreClockUpdate                    0x08004e6d   Thumb Code   174  system_stm32f4xx.o(.text)
    Reset_Handler                            0x08004f49   Thumb Code     8  startup_stm32f4xx.o(.text)
    NMI_Handler                              0x08004f51   Thumb Code     2  startup_stm32f4xx.o(.text)
    HardFault_Handler                        0x08004f53   Thumb Code     2  startup_stm32f4xx.o(.text)
    MemManage_Handler                        0x08004f55   Thumb Code     2  startup_stm32f4xx.o(.text)
    BusFault_Handler                         0x08004f57   Thumb Code     2  startup_stm32f4xx.o(.text)
    UsageFault_Handler                       0x08004f59   Thumb Code     2  startup_stm32f4xx.o(.text)
    SVC_Handler                              0x08004f5b   Thumb Code     2  startup_stm32f4xx.o(.text)
    DebugMon_Handler                         0x08004f5d   Thumb Code     2  startup_stm32f4xx.o(.text)
    PendSV_Handler                           0x08004f5f   Thumb Code     2  startup_stm32f4xx.o(.text)
    SysTick_Handler                          0x08004f61   Thumb Code     2  startup_stm32f4xx.o(.text)
    ADC_IRQHandler                           0x08004f63   Thumb Code     0  startup_stm32f4xx.o(.text)
    CAN1_RX1_IRQHandler                      0x08004f63   Thumb Code     0  startup_stm32f4xx.o(.text)
    CAN1_SCE_IRQHandler                      0x08004f63   Thumb Code     0  startup_stm32f4xx.o(.text)
    CAN2_RX1_IRQHandler                      0x08004f63   Thumb Code     0  startup_stm32f4xx.o(.text)
    CAN2_SCE_IRQHandler                      0x08004f63   Thumb Code     0  startup_stm32f4xx.o(.text)
    CRYP_IRQHandler                          0x08004f63   Thumb Code     0  startup_stm32f4xx.o(.text)
    DCMI_IRQHandler                          0x08004f63   Thumb Code     0  startup_stm32f4xx.o(.text)
    DMA1_Stream0_IRQHandler                  0x08004f63   Thumb Code     0  startup_stm32f4xx.o(.text)
    DMA1_Stream1_IRQHandler                  0x08004f63   Thumb Code     0  startup_stm32f4xx.o(.text)
    DMA1_Stream2_IRQHandler                  0x08004f63   Thumb Code     0  startup_stm32f4xx.o(.text)
    DMA1_Stream3_IRQHandler                  0x08004f63   Thumb Code     0  startup_stm32f4xx.o(.text)
    DMA1_Stream4_IRQHandler                  0x08004f63   Thumb Code     0  startup_stm32f4xx.o(.text)
    DMA1_Stream5_IRQHandler                  0x08004f63   Thumb Code     0  startup_stm32f4xx.o(.text)
    DMA1_Stream6_IRQHandler                  0x08004f63   Thumb Code     0  startup_stm32f4xx.o(.text)
    DMA1_Stream7_IRQHandler                  0x08004f63   Thumb Code     0  startup_stm32f4xx.o(.text)
    DMA2_Stream0_IRQHandler                  0x08004f63   Thumb Code     0  startup_stm32f4xx.o(.text)
    DMA2_Stream1_IRQHandler                  0x08004f63   Thumb Code     0  startup_stm32f4xx.o(.text)
    DMA2_Stream2_IRQHandler                  0x08004f63   Thumb Code     0  startup_stm32f4xx.o(.text)
    DMA2_Stream3_IRQHandler                  0x08004f63   Thumb Code     0  startup_stm32f4xx.o(.text)
    DMA2_Stream4_IRQHandler                  0x08004f63   Thumb Code     0  startup_stm32f4xx.o(.text)
    DMA2_Stream5_IRQHandler                  0x08004f63   Thumb Code     0  startup_stm32f4xx.o(.text)
    DMA2_Stream6_IRQHandler                  0x08004f63   Thumb Code     0  startup_stm32f4xx.o(.text)
    DMA2_Stream7_IRQHandler                  0x08004f63   Thumb Code     0  startup_stm32f4xx.o(.text)
    ETH_IRQHandler                           0x08004f63   Thumb Code     0  startup_stm32f4xx.o(.text)
    ETH_WKUP_IRQHandler                      0x08004f63   Thumb Code     0  startup_stm32f4xx.o(.text)
    EXTI0_IRQHandler                         0x08004f63   Thumb Code     0  startup_stm32f4xx.o(.text)
    EXTI15_10_IRQHandler                     0x08004f63   Thumb Code     0  startup_stm32f4xx.o(.text)
    EXTI1_IRQHandler                         0x08004f63   Thumb Code     0  startup_stm32f4xx.o(.text)
    EXTI2_IRQHandler                         0x08004f63   Thumb Code     0  startup_stm32f4xx.o(.text)
    EXTI3_IRQHandler                         0x08004f63   Thumb Code     0  startup_stm32f4xx.o(.text)
    EXTI4_IRQHandler                         0x08004f63   Thumb Code     0  startup_stm32f4xx.o(.text)
    EXTI9_5_IRQHandler                       0x08004f63   Thumb Code     0  startup_stm32f4xx.o(.text)
    FLASH_IRQHandler                         0x08004f63   Thumb Code     0  startup_stm32f4xx.o(.text)
    FPU_IRQHandler                           0x08004f63   Thumb Code     0  startup_stm32f4xx.o(.text)
    FSMC_IRQHandler                          0x08004f63   Thumb Code     0  startup_stm32f4xx.o(.text)
    HASH_RNG_IRQHandler                      0x08004f63   Thumb Code     0  startup_stm32f4xx.o(.text)
    I2C1_ER_IRQHandler                       0x08004f63   Thumb Code     0  startup_stm32f4xx.o(.text)
    I2C1_EV_IRQHandler                       0x08004f63   Thumb Code     0  startup_stm32f4xx.o(.text)
    I2C2_ER_IRQHandler                       0x08004f63   Thumb Code     0  startup_stm32f4xx.o(.text)
    I2C2_EV_IRQHandler                       0x08004f63   Thumb Code     0  startup_stm32f4xx.o(.text)
    I2C3_ER_IRQHandler                       0x08004f63   Thumb Code     0  startup_stm32f4xx.o(.text)
    I2C3_EV_IRQHandler                       0x08004f63   Thumb Code     0  startup_stm32f4xx.o(.text)
    OTG_FS_IRQHandler                        0x08004f63   Thumb Code     0  startup_stm32f4xx.o(.text)
    OTG_FS_WKUP_IRQHandler                   0x08004f63   Thumb Code     0  startup_stm32f4xx.o(.text)
    OTG_HS_EP1_IN_IRQHandler                 0x08004f63   Thumb Code     0  startup_stm32f4xx.o(.text)
    OTG_HS_EP1_OUT_IRQHandler                0x08004f63   Thumb Code     0  startup_stm32f4xx.o(.text)
    OTG_HS_IRQHandler                        0x08004f63   Thumb Code     0  startup_stm32f4xx.o(.text)
    OTG_HS_WKUP_IRQHandler                   0x08004f63   Thumb Code     0  startup_stm32f4xx.o(.text)
    PVD_IRQHandler                           0x08004f63   Thumb Code     0  startup_stm32f4xx.o(.text)
    RCC_IRQHandler                           0x08004f63   Thumb Code     0  startup_stm32f4xx.o(.text)
    RTC_Alarm_IRQHandler                     0x08004f63   Thumb Code     0  startup_stm32f4xx.o(.text)
    RTC_WKUP_IRQHandler                      0x08004f63   Thumb Code     0  startup_stm32f4xx.o(.text)
    SDIO_IRQHandler                          0x08004f63   Thumb Code     0  startup_stm32f4xx.o(.text)
    SPI1_IRQHandler                          0x08004f63   Thumb Code     0  startup_stm32f4xx.o(.text)
    SPI2_IRQHandler                          0x08004f63   Thumb Code     0  startup_stm32f4xx.o(.text)
    SPI3_IRQHandler                          0x08004f63   Thumb Code     0  startup_stm32f4xx.o(.text)
    TAMP_STAMP_IRQHandler                    0x08004f63   Thumb Code     0  startup_stm32f4xx.o(.text)
    TIM1_BRK_TIM9_IRQHandler                 0x08004f63   Thumb Code     0  startup_stm32f4xx.o(.text)
    TIM1_CC_IRQHandler                       0x08004f63   Thumb Code     0  startup_stm32f4xx.o(.text)
    TIM1_TRG_COM_TIM11_IRQHandler            0x08004f63   Thumb Code     0  startup_stm32f4xx.o(.text)
    TIM1_UP_TIM10_IRQHandler                 0x08004f63   Thumb Code     0  startup_stm32f4xx.o(.text)
    TIM3_IRQHandler                          0x08004f63   Thumb Code     0  startup_stm32f4xx.o(.text)
    TIM4_IRQHandler                          0x08004f63   Thumb Code     0  startup_stm32f4xx.o(.text)
    TIM5_IRQHandler                          0x08004f63   Thumb Code     0  startup_stm32f4xx.o(.text)
    TIM7_IRQHandler                          0x08004f63   Thumb Code     0  startup_stm32f4xx.o(.text)
    TIM8_BRK_TIM12_IRQHandler                0x08004f63   Thumb Code     0  startup_stm32f4xx.o(.text)
    TIM8_CC_IRQHandler                       0x08004f63   Thumb Code     0  startup_stm32f4xx.o(.text)
    TIM8_TRG_COM_TIM14_IRQHandler            0x08004f63   Thumb Code     0  startup_stm32f4xx.o(.text)
    TIM8_UP_TIM13_IRQHandler                 0x08004f63   Thumb Code     0  startup_stm32f4xx.o(.text)
    UART4_IRQHandler                         0x08004f63   Thumb Code     0  startup_stm32f4xx.o(.text)
    UART5_IRQHandler                         0x08004f63   Thumb Code     0  startup_stm32f4xx.o(.text)
    USART2_IRQHandler                        0x08004f63   Thumb Code     0  startup_stm32f4xx.o(.text)
    USART6_IRQHandler                        0x08004f63   Thumb Code     0  startup_stm32f4xx.o(.text)
    WWDG_IRQHandler                          0x08004f63   Thumb Code     0  startup_stm32f4xx.o(.text)
    main                                     0x08004f6d   Thumb Code    32  main.o(.text)
    __aeabi_memset                           0x08004f8d   Thumb Code    14  memseta.o(.text)
    __aeabi_memset4                          0x08004f8d   Thumb Code     0  memseta.o(.text)
    __aeabi_memset8                          0x08004f8d   Thumb Code     0  memseta.o(.text)
    __aeabi_memclr                           0x08004f9b   Thumb Code     4  memseta.o(.text)
    __aeabi_memclr4                          0x08004f9b   Thumb Code     0  memseta.o(.text)
    __aeabi_memclr8                          0x08004f9b   Thumb Code     0  memseta.o(.text)
    _memset$wrapper                          0x08004f9f   Thumb Code    18  memseta.o(.text)
    __scatterload                            0x08004fb1   Thumb Code    28  init.o(.text)
    __scatterload_rt2                        0x08004fb1   Thumb Code     0  init.o(.text)
    __decompress                             0x08004fd5   Thumb Code     0  __dczerorl2.o(.text)
    __decompress1                            0x08004fd5   Thumb Code    86  __dczerorl2.o(.text)
    __scatterload_copy                       0x0800502b   Thumb Code    14  handlers.o(i.__scatterload_copy)
    __scatterload_null                       0x08005039   Thumb Code     2  handlers.o(i.__scatterload_null)
    __scatterload_zeroinit                   0x0800503b   Thumb Code    14  handlers.o(i.__scatterload_zeroinit)
    free                                     0x08005049   Thumb Code    76  malloc.o(i.free)
    malloc                                   0x08005099   Thumb Code    92  malloc.o(i.malloc)
    CRC16Table                               0x08005104   Data         512  crc16.o(.constdata)
    INIT_CRC16                               0x08005304   Data           2  crc16.o(.constdata)
    Region$$Table$$Base                      0x08005308   Number         0  anon$$obj.o(Region$$Table)
    Region$$Table$$Limit                     0x08005328   Number         0  anon$$obj.o(Region$$Table)
    ZGyroAngle                               0x20000000   Data           4  can1task.o(.data)
    inputMode                                0x20000004   Data           1  inputtask.o(.data)
    lastInputMode                            0x20000005   Data           1  inputtask.o(.data)
    ctrlMode                                 0x20000006   Data           1  inputtask.o(.data)
    lastCtrlMode                             0x20000007   Data           1  inputtask.o(.data)
    switchPanel                              0x20000008   Data           6  inputtask.o(.data)
    gimbalsPosition                          0x2000000e   Data           8  inputtask.o(.data)
    gimbalsSpeed                             0x20000016   Data           8  inputtask.o(.data)
    gimbalsCurrent                           0x2000001e   Data           8  inputtask.o(.data)
    mafilter_x                               0x20000028   Data           4  inputtask.o(.data)
    mafilter_y                               0x2000002c   Data           4  inputtask.o(.data)
    mafilter_z                               0x20000030   Data           4  inputtask.o(.data)
    workingState                             0x20000034   Data           1  controltask.o(.data)
    lastWorkingState                         0x20000035   Data           1  controltask.o(.data)
    chassisPositionXPid                      0x20000038   Data          80  controltask.o(.data)
    chassisPositionYPid                      0x20000088   Data          80  controltask.o(.data)
    chassisPositionZPid                      0x200000d8   Data          80  controltask.o(.data)
    chassisSpeedXPid                         0x20000128   Data          80  controltask.o(.data)
    chassisSpeedYPid                         0x20000178   Data          80  controltask.o(.data)
    chassisSpeedZPid                         0x200001c8   Data          80  controltask.o(.data)
    gimbalsPositionYawPID                    0x20000218   Data          80  controltask.o(.data)
    gimbalsPositionPitchPID                  0x20000268   Data          80  controltask.o(.data)
    gimbalsSpeedYawPID                       0x200002b8   Data          80  controltask.o(.data)
    gimbalsSpeedPitchPID                     0x20000308   Data          80  controltask.o(.data)
    chassisRamp                              0x20000358   Data          48  controltask.o(.data)
    gimbalsRamp                              0x20000388   Data          48  controltask.o(.data)
    chassisMotorCurrent                      0x200003b8   Data           8  controltask.o(.data)
    gimbalsMotorCurrent                      0x200003c0   Data           4  controltask.o(.data)
    dbuf                                     0x200003c8   Data           4  usart1.o(.data)
    usart3_tx_fifo                           0x200003d0   Data           4  usart3.o(.data)
    SystemCoreClock                          0x200003e4   Data           4  system_stm32f4xx.o(.data)
    AHBPrescTable                            0x200003e8   Data          16  system_stm32f4xx.o(.data)
    __microlib_freelist                      0x200003f8   Data           4  mvars.o(.data)
    __microlib_freelist_initialised          0x200003fc   Data           4  mvars.o(.data)
    CM1Encoder                               0x20000400   Data          92  can2task.o(.bss)
    CM2Encoder                               0x2000045c   Data          92  can2task.o(.bss)
    CM3Encoder                               0x200004b8   Data          92  can2task.o(.bss)
    CM4Encoder                               0x20000514   Data          92  can2task.o(.bss)
    GMYEncoder                               0x20000570   Data          92  can2task.o(.bss)
    GMPEncoder                               0x200005cc   Data          92  can2task.o(.bss)
    keyboard                                 0x20000628   Data          24  inputtask.o(.bss)
    chassisPosition                          0x20000640   Data          12  inputtask.o(.bss)
    chassisSpeed                             0x2000064c   Data          12  inputtask.o(.bss)
    chassisCurrent                           0x20000658   Data          12  inputtask.o(.bss)
    mecanumPosition                          0x20000664   Data          28  controltask.o(.bss)
    mecanumSpeed                             0x20000680   Data          28  controltask.o(.bss)
    mecanumCurrent                           0x2000069c   Data          28  controltask.o(.bss)
    odom                                     0x200006b8   Data          16  odomtask.o(.bss)
    can1RxMsg                                0x200006c8   Data          20  can1.o(.bss)
    can2RxMsg                                0x200006dc   Data          20  can2.o(.bss)
    usart1_dma_rx_buf                        0x200006f0   Data          72  usart1.o(.bss)
    dbus                                     0x20000738   Data          22  usart1.o(.bss)
    __heap_base                              0x20000750   Data           0  startup_stm32f4xx.o(HEAP)
    __heap_limit                             0x20000950   Data           0  startup_stm32f4xx.o(HEAP)
    __initial_sp                             0x20001350   Data           0  startup_stm32f4xx.o(STACK)



==============================================================================

Memory Map of the image

  Image Entry point : 0x08000189

  Load Region LR_IROM1 (Base: 0x08000000, Size: 0x00005728, Max: 0x00100000, ABSOLUTE, COMPRESSED[0x00005398])

    Execution Region ER_IROM1 (Base: 0x08000000, Size: 0x00005328, Max: 0x00100000, ABSOLUTE)

    Base Addr    Size         Type   Attr      Idx    E Section Name        Object

    0x08000000   0x00000188   Data   RO          992    RESET               startup_stm32f4xx.o
    0x08000188   0x00000000   Code   RO         1017  * .ARM.Collect$$$$00000000  mc_w.l(entry.o)
    0x08000188   0x00000004   Code   RO         1054    .ARM.Collect$$$$00000001  mc_w.l(entry2.o)
    0x0800018c   0x00000004   Code   RO         1057    .ARM.Collect$$$$00000004  mc_w.l(entry5.o)
    0x08000190   0x00000000   Code   RO         1059    .ARM.Collect$$$$00000008  mc_w.l(entry7b.o)
    0x08000190   0x00000000   Code   RO         1061    .ARM.Collect$$$$0000000A  mc_w.l(entry8b.o)
    0x08000190   0x00000008   Code   RO         1062    .ARM.Collect$$$$0000000B  mc_w.l(entry9a.o)
    0x08000198   0x00000000   Code   RO         1064    .ARM.Collect$$$$0000000D  mc_w.l(entry10a.o)
    0x08000198   0x00000000   Code   RO         1066    .ARM.Collect$$$$0000000F  mc_w.l(entry11a.o)
    0x08000198   0x00000004   Code   RO         1055    .ARM.Collect$$$$00002712  mc_w.l(entry2.o)
    0x0800019c   0x0000009c   Code   RO           24    .text               crc16.o
    0x08000238   0x000001b4   Code   RO           72    .text               fifo.o
    0x080003ec   0x0000012c   Code   RO          108    .text               mafilter_f32.o
    0x08000518   0x000001bc   Code   RO          153    .text               pid.o
    0x080006d4   0x00000086   Code   RO          168    .text               ramp.o
    0x0800075a   0x00000002   PAD
    0x0800075c   0x00000140   Code   RO          183    .text               mecanum.o
    0x0800089c   0x00000050   Code   RO          222    .text               can1task.o
    0x080008ec   0x00000084   Code   RO          380    .text               can2task.o
    0x08000970   0x000009d0   Code   RO          410    .text               inputtask.o
    0x08001340   0x00000534   Code   RO          437    .text               controltask.o
    0x08001874   0x00000114   Code   RO          464    .text               odomtask.o
    0x08001988   0x0000003c   Code   RO          490    .text               bsp.o
    0x080019c4   0x00000158   Code   RO          510    .text               can1.o
    0x08001b1c   0x00000150   Code   RO          536    .text               can2.o
    0x08001c6c   0x00000148   Code   RO          560    .text               dbus.o
    0x08001db4   0x00000184   Code   RO          594    .text               encoder.o
    0x08001f38   0x00000040   Code   RO          614    .text               led.o
    0x08001f78   0x000000ae   Code   RO          634    .text               motor.o
    0x08002026   0x00000002   PAD
    0x08002028   0x000001c8   Code   RO          654    .text               pwm.o
    0x080021f0   0x000000e8   Code   RO          694    .text               timer.o
    0x080022d8   0x000001d0   Code   RO          714    .text               usart1.o
    0x080024a8   0x00000174   Code   RO          741    .text               usart3.o
    0x0800261c   0x000000e0   Code   RO          784    .text               misc.o
    0x080026fc   0x000009f0   Code   RO          804    .text               stm32f4xx_can.o
    0x080030ec   0x000003a8   Code   RO          824    .text               stm32f4xx_dma.o
    0x08003494   0x0000025c   Code   RO          864    .text               stm32f4xx_gpio.o
    0x080036f0   0x00000588   Code   RO          884    .text               stm32f4xx_rcc.o
    0x08003c78   0x00000ca2   Code   RO          926    .text               stm32f4xx_tim.o
    0x0800491a   0x00000002   PAD
    0x0800491c   0x0000041a   Code   RO          946    .text               stm32f4xx_usart.o
    0x08004d36   0x00000002   PAD
    0x08004d38   0x00000210   Code   RO          966    .text               system_stm32f4xx.o
    0x08004f48   0x00000024   Code   RO          993    .text               startup_stm32f4xx.o
    0x08004f6c   0x00000020   Code   RO          999    .text               main.o
    0x08004f8c   0x00000024   Code   RO         1022    .text               mc_w.l(memseta.o)
    0x08004fb0   0x00000024   Code   RO         1070    .text               mc_w.l(init.o)
    0x08004fd4   0x00000056   Code   RO         1080    .text               mc_w.l(__dczerorl2.o)
    0x0800502a   0x0000000e   Code   RO         1074    i.__scatterload_copy  mc_w.l(handlers.o)
    0x08005038   0x00000002   Code   RO         1075    i.__scatterload_null  mc_w.l(handlers.o)
    0x0800503a   0x0000000e   Code   RO         1076    i.__scatterload_zeroinit  mc_w.l(handlers.o)
    0x08005048   0x00000050   Code   RO         1026    i.free              mc_w.l(malloc.o)
    0x08005098   0x0000006c   Code   RO         1027    i.malloc            mc_w.l(malloc.o)
    0x08005104   0x00000202   Data   RO           25    .constdata          crc16.o
    0x08005306   0x00000002   PAD
    0x08005308   0x00000020   Data   RO         1072    Region$$Table       anon$$obj.o


    Execution Region RW_IRAM1 (Base: 0x20000000, Size: 0x00001350, Max: 0x00020000, ABSOLUTE, COMPRESSED[0x00000070])

    Base Addr    Size         Type   Attr      Idx    E Section Name        Object

    0x20000000   0x00000004   Data   RW          223    .data               can1task.o
    0x20000004   0x00000030   Data   RW          412    .data               inputtask.o
    0x20000034   0x00000394   Data   RW          439    .data               controltask.o
    0x200003c8   0x00000008   Data   RW          716    .data               usart1.o
    0x200003d0   0x00000004   Data   RW          742    .data               usart3.o
    0x200003d4   0x00000010   Data   RW          885    .data               stm32f4xx_rcc.o
    0x200003e4   0x00000014   Data   RW          967    .data               system_stm32f4xx.o
    0x200003f8   0x00000004   Data   RW         1068    .data               mc_w.l(mvars.o)
    0x200003fc   0x00000004   Data   RW         1069    .data               mc_w.l(mvars.o)
    0x20000400   0x00000228   Zero   RW          381    .bss                can2task.o
    0x20000628   0x0000003c   Zero   RW          411    .bss                inputtask.o
    0x20000664   0x00000054   Zero   RW          438    .bss                controltask.o
    0x200006b8   0x00000010   Zero   RW          465    .bss                odomtask.o
    0x200006c8   0x00000014   Zero   RW          511    .bss                can1.o
    0x200006dc   0x00000014   Zero   RW          537    .bss                can2.o
    0x200006f0   0x0000005e   Zero   RW          715    .bss                usart1.o
    0x2000074e   0x00000002   PAD
    0x20000750   0x00000200   Zero   RW          991    HEAP                startup_stm32f4xx.o
    0x20000950   0x00000a00   Zero   RW          990    STACK               startup_stm32f4xx.o


==============================================================================

Image component sizes


      Code (inc. data)   RO Data    RW Data    ZI Data      Debug   Object Name

        60          4          0          0          0        497   bsp.o
       344         16          0          0         20       1209   can1.o
        80         12          0          4          0     278744   can1task.o
       336         14          0          0         20       1205   can2.o
       132         36          0          0        552        923   can2task.o
      1332        150          0        916         84       4813   controltask.o
       156          6        514          0          0       1855   crc16.o
         0          0          0          0          0       4500   crc8.o
       328          0          0          0          0       1816   dbus.o
       388         16          0          0          0       1601   encoder.o
       436          0          0          0          0       4980   fifo.o
      2512        164          0         48         60       7103   inputtask.o
        64          6          0          0          0        497   led.o
       300          4          0          0          0       2453   mafilter_f32.o
        32          0          0          0          0        467   main.o
       320          8          0          0          0       1374   mecanum.o
       224         20          0          0          0       1789   misc.o
       174          0          0          0          0       1388   motor.o
       276         26          0          0         16       1330   odomtask.o
       444          4          0          0          0       2093   pid.o
       456         22          0          0          0        757   pwm.o
       134          0          0          0          0       3146   ramp.o
        36          8        392          0       3072        816   startup_stm32f4xx.o
      2544         38          0          0          0       8112   stm32f4xx_can.o
       936         32          0          0          0       6365   stm32f4xx_dma.o
       604         36          0          0          0       4097   stm32f4xx_gpio.o
      1416         48          0         16          0      11007   stm32f4xx_rcc.o
      3234         60          0          0          0      22980   stm32f4xx_tim.o
      1050         26          0          0          0       7828   stm32f4xx_usart.o
       528         46          0         20          0       1807   system_stm32f4xx.o
       232          6          0          0          0       1077   timer.o
       464         32          0          8         94       1504   usart1.o
       372         12          0          4          0       1968   usart3.o

    ----------------------------------------------------------------------
     19952        852        940       1016       3920     392101   Object Totals
         0          0         32          0          0          0   (incl. Generated)
         8          0          2          0          2          0   (incl. Padding)

    ----------------------------------------------------------------------

      Code (inc. data)   RO Data    RW Data    ZI Data      Debug   Library Member Name

        86          0          0          0          0          0   __dczerorl2.o
         0          0          0          0          0          0   entry.o
         0          0          0          0          0          0   entry10a.o
         0          0          0          0          0          0   entry11a.o
         8          4          0          0          0          0   entry2.o
         4          0          0          0          0          0   entry5.o
         0          0          0          0          0          0   entry7b.o
         0          0          0          0          0          0   entry8b.o
         8          4          0          0          0          0   entry9a.o
        30          0          0          0          0          0   handlers.o
        36          8          0          0          0         68   init.o
       188         20          0          0          0        160   malloc.o
        36          0          0          0          0        108   memseta.o
         0          0          0          8          0          0   mvars.o

    ----------------------------------------------------------------------
       396         36          0          8          0        336   Library Totals
         0          0          0          0          0          0   (incl. Padding)

    ----------------------------------------------------------------------

      Code (inc. data)   RO Data    RW Data    ZI Data      Debug   Library Name

       396         36          0          8          0        336   mc_w.l

    ----------------------------------------------------------------------
       396         36          0          8          0        336   Library Totals

    ----------------------------------------------------------------------

==============================================================================


      Code (inc. data)   RO Data    RW Data    ZI Data      Debug   

     20348        888        940       1024       3920     387217   Grand Totals
     20348        888        940        112       3920     387217   ELF Image Totals (compressed)
     20348        888        940        112          0          0   ROM Totals

==============================================================================

    Total RO  Size (Code + RO Data)                21288 (  20.79kB)
    Total RW  Size (RW Data + ZI Data)              4944 (   4.83kB)
    Total ROM Size (Code + RO Data + RW Data)      21400 (  20.90kB)

==============================================================================

